:020000040800F2
:10000000180700202902000851140008B91200083E
:100010004D140008210400089D160008000000008F
:10002000000000000000000000000000591400085B
:100030002504000800000000551400085D140008A5
:10004000430200084302000843020008430200087C
:10005000430200084302000843020008430200086C
:10006000430200084302000843020008430200085C
:10007000430200084302000843020008430200084C
:10008000430200084302000843020008430200083C
:10009000430200084302000843020008430200082C
:1000A000430200084302000843020008430200081C
:1000B000430200084302000843020008430200080C
:1000C00043020008430200084302000843020008FC
:1000D00043020008430200084302000843020008EC
:1000E00043020008430200084302000843020008DC
:1000F00043020008430200084302000843020008CC
:1001000043020008430200084302000843020008BB
:1001100043020008430200084302000843020008AB
:10012000430200084302000843020008430200089B
:100130004302000800000000000000004302000825
:10014000430200084302000843020008430200087B
:10015000430200084302000843020008430200086B
:10016000430200084302000843020008430200085B
:1001700043020008430200080000000000000000E5
:10018000430200084302000800F002F800F03CF8C7
:100190000AA090E8000C82448344AAF10107DA45E2
:1001A00001D100F031F8AFF2090EBAE80F0013F0F8
:1001B000010F18BFFB1A43F0010318476418000031
:1001C00084180000103A24BF78C878C1FAD85207C2
:1001D00024BF30C830C144BF04680C6070470000C1
:1001E0000023002400250026103A28BF78C1FBD840
:1001F000520728BF30C148BF0B6070471FB501F0E0
:10020000F5FB1FBD10B510BD00F0D0F81146FFF78B
:10021000F5FF01F0E7FA00F0EEF803B4FFF7F2FFA4
:1002200003BC00F0F5F80000094880470948004782
:10023000FEE7FEE7FEE7FEE7FEE7FEE7FEE7FEE796
:10024000FEE7FEE704480549054A064B70470000F3
:100250006114000889010008180100201807002017
:10026000180300201803002053EA020C00F06980F4
:100270002DE9F04B4FF00006002B1FBFB3FA83F5BA
:1002800003FA05F424FA05F65E4012BF1643B2FAEB
:1002900082F502FA05F4C5F120051EBF22FA05FC1D
:1002A00044EA0C04203556EA044C4FEA144418BFC3
:1002B000641C4FF000084FF00009904271EB030CF2
:1002C00039D3002919BFB1FA81F701FA07F6B0FA5C
:1002D00080F700FA07F6C7F120071EBF20FA07FCD7
:1002E00046EA0C062037B6FBF4FCA7EB0507103FE7
:1002F00007F01F0BCBF120062CFA06F60CFA0BFBCD
:1003000044BFB3460026202FA4BF5E464FF0000B2B
:100310005BEA060C08BF4FF0010B19EB0B0948EB29
:100320000608ABFB027C06FB02CC0BFB03CCC01B1C
:1003300071EB0C01C1E70B46024641464846BDE859
:10034000F08B13B5084318BF4FF0FF300146AFF3F1
:100350000080BDE81C4070474FF0000200B5134616
:1003600094469646203922BFA0E80C50A0E80C50D5
:10037000B1F12001BFF4F7AF090728BFA0E80C5086
:1003800048BF0CC05DF804EB890028BF40F8042B7F
:1003900008BF704748BF20F8022B11F0804F18BFEC
:1003A00000F8012B7047704770477047754600F0A2
:1003B0002BF8AE4605006946534620F007008546F7
:1003C00018B020B5FFF73EFFBDE820404FF0000613
:1003D0004FF000074FF000084FF0000BAC46ACE8C0
:1003E000C009ACE8C009ACE8C009ACE8C00921F01C
:1003F00007018D46704710B50446AFF300802046D4
:10040000BDE81040FFF709BF00487047100000200A
:1004100001491820ABBEFEE726000200704700002D
:10042000FEE700007047000072B600BFFEE7000064
:10043000B0B5044600F0FAF8054640F20000C2F2FA
:1004400000000078611C18BF044400BF00F0EEF803
:10045000401BA042FAD3B0BD2DE9F04F82B000F1AD
:100460003E4241F6004502F1FF77C4F20205082240
:100470004FEAB726A84208BF0722072E38BF4FEA27
:10048000B7224FF0010A002400274FF00008009225
:1004900008E000BF023708F10108202F04F104042E
:1004A00000F0B4800E680AFA08F916EA090FF1D0D4
:1004B000D1F804A00AF0030BABF10106012E17D806
:1004C0000322866802FA07FECA6826EA0E06BA40C8
:1004D000324382604268CAF3001522EA090205FA33
:1004E00008F54FEA480C6FEA0E062A4342600BE01B
:1004F0000322BA40D643BBF1030FBC4604D1BC462D
:100500004FF0030B22E000BFC2688D68324005FA4D
:100510000CF52A43BBF1020FC26017D16FF0030242
:1005200002EA5802024404F01C030F25D2F820E02E
:1005300005FA03FA0D692EEA0A0E05FA03F343EAF7
:100540000E031362D1F804A00AF0030B02680BFA41
:100550000CF332401A431AF4403F4FF0010A026094
:1005600098D0002243F644030192C4F202031A68B1
:1005700043F6004E42F480421A601A68C4F2010E3B
:1005800002F480420192019A28F003024FF6084CCF
:100590007244CFF6FF7C52F80C3004F00C060F25A5
:1005A000B540AB43009D05FA06F6334342F80C30E4
:1005B000DEF808204B6842EA090643F60C4CDD02DF
:1005C00058BF22EA0906CEF80860C4F2010CDCF834
:1005D00000209D0242EA090658BF22EA0906CCF82B
:1005E0000060DEF804209D0342EA090658BF22EAB3
:1005F0000906CEF80460DEF80020DB0342EA0906B3
:1006000058BF22EA0906CEF8006043E702B0BDE811
:10061000F08F00000069084018BF012070470000FB
:10062000002A08BF090481617047000040F21010E1
:10063000C2F200000068704740F2000040F2101162
:10064000C2F20000C2F2000100780A68104408609B
:100650007047000080B543F60040C4F20200016814
:1006600041F400710160016841F48061016001683A
:1006700041F480710160032000F074F80F2000F055
:1006800005F800F027F8002080BD000070B540F2AA
:100690000006C2F2000640F208013278C2F2000100
:1006A0004FF47A730968B3FBF2F20446B1FBF2F13E
:1006B000084600F031FB0F2C4FF0010508D838B97F
:1006C0004FF0FF3021460022002500F01FF8746033
:1006D000284670BD82B0002043F640010190C4F26C
:1006E00002014A6842F480424A604A6802F4804249
:1006F0000192019A0090086840F0805008600868F4
:1007000000F080500090009802B0704710B54EF68F
:100710000C5CCEF2000CDCF80030C3F3022E8EF03D
:100720000704042C28BF0424BEF103034FF0FF3E4E
:100730000EFA04F438BF0023A14399400EFA03F3E4
:100740009A43114300F00F02043A624409010C324B
:1007500000F16043B0F1FF3FC8BF03F56442117080
:1007600010BD00004EF60C51CEF200010A684FF6A3
:10077000FF031A4060F30A2242F0806040F0FD70EF
:10078000086070472DE9F041002800F08B8043F6A7
:100790000808C4F202080446D8F8F8030D4600F031
:1007A0000700884207D288F8F853D8F8F80300F019
:1007B0000700A84276D12068810717D5410705D5E3
:1007C000D8F8001041F4E051C8F80010010705D531
:1007D000D8F8001041F46041C8F80010D8F80010B3
:1007E000A26821F0F0011143C8F80010C0073FD102
:1007F000D8F8F80300F00700A84207D988F8F853A2
:10080000D8F8F80300F00700A8424BD12068410750
:1008100007D5D8F80010E26821F4E0511143C8F878
:100820000010000708D5D8F80000216920F46040C6
:1008300040EAC100C8F8000000F07CF8D8F80010C9
:1008400041F60622C1F30311C0F60002515C40F2EA
:10085000080220FA01F140F20400C2F20000006830
:10086000C2F200021160FFF711FF0020BDE8F08125
:100870006068811E022907D258F8081C89015CBFF4
:100880000120BDE8F08111E0012807D158F8081CCB
:1008900089035CBF0120BDE8F08107E058F8081C1F
:1008A000890703D40120BDE8F08100BFD8F800100B
:1008B00021F003010843C8F80000FFF7B7FE064621
:1008C00041F28837D8F80000616800F00C00B0EB06
:1008D000810F8DD0FFF7AAFE801BB842F2D903200A
:1008E000BDE8F08140F2080043F60801C2F20000C2
:1008F000C4F202010068096841F61622C1F38221A0
:10090000C0F60002515CC8407047000040F2080089
:1009100043F60801C2F20000C4F20201006809684F
:1009200041F61622C1F34231C0F60002515CC840C4
:100930007047000010B543F60404C4F20204606876
:1009400000F00C0008280BD0042819BF42F2004028
:10095000C0F2F40047F64000C0F27D1010BD00BFA9
:10096000206821682368490247F64001C0F27D11E2
:1009700000F03F02C3F388105CBF42F20041C0F2B6
:10098000F401A1FB00010023FFF76EFC21680222A5
:10099000C1F3014102EB4101B0FBF1F010BD0000D9
:1009A0002DE9F04182B000286AD00446007843F671
:1009B0000006C007C4F202060BD0B06800F00C00BD
:1009C000042840F0A1803068800302D560680028C8
:1009D00056D0207880071AD5B06810F00C0F09D0D7
:1009E000B06800F00C00082840F0A8807068400251
:1009F00000F1A4803068800702D5E06801283FD16B
:100A00003068216920F0F80040EAC10030602078A9
:100A1000000739D4207840074ED4A5695DB3B0688B
:100A200000F00C00082840F0BD80012D28D070682F
:100A3000E16900F480028A4222D1216A00F03F027B
:100A40008A421DD147F6C071626A0140B1EB821F34
:100A500016D1A26A0023CFF6FF7303EBC23200F473
:100A600040316FF30F0291420AD1E16A00F07060E9
:100A7000B0EB016F04D1002002B0BDE8F08100BFEF
:100A8000012002B0BDE8F0816069002840F200005A
:100A9000C4F2472076D00121C0F8801EFFF7C6FDC2
:100AA000054600BF706F8007B4D4FFF7BFFD401B41
:100AB0000228F7D9DDE000BF306C10F080580AD171
:100AC00000200190306C40F080503064306C00F0B9
:100AD00080500190019847F20007C4F2000738687F
:100AE000C00541D4386840F480703860FFF79EFD3F
:100AF000054600BF3868C00536D4FFF797FD401B98
:100B00000228F7D9B5E000BFB06800F00C00082853
:100B100003D1706840023FF556AF6068B0F5803F82
:100B200007D0B0F5A02F40F08D80306840F48020D1
:100B30003060306840F4803030608DE0E06800283C
:100B400052D00020C4F2472001210160FFF76EFD62
:100B5000054600BF306880073FF552AFFFF766FDDE
:100B6000401B0228F6D984E0A068012805D005289A
:100B70004ED1306F40F004003067306F40F001001C
:100B800030674FE00021C0F8801EFFF74FFD05469B
:100B9000706F80077FF53EAFFFF748FD401B0228CE
:100BA000F6D966E00027C4F2472700203866FFF731
:100BB0003DFD022D05460BD1306880015ED5FFF763
:100BC00035FD401B02284FF00300F5D954E700BF64
:100BD000306880017FF54FAFFFF728FD401B0228EA
:100BE0004FF00300F4D947E70020C4F2472000216A
:100BF0000160FFF71BFD0546306880077FF507AFF2
:100C0000FFF714FD401B02284FF00300F4D933E72F
:100C1000316F002821F001013167316F21F00401AB
:100C200031674DD0FFF702FD054641F2883700BF1E
:100C3000306F800756D4FFF7F9FC401BB842F7D954
:100C400017E000BF3168002821F48031316031683D
:100C500021F4802131604FD0FFF7E8FC054600BF4A
:100C6000306880033FF5B5AEFFF7E0FC401B642819
:100C7000F6D9032002B0BDE8F08100BF04F11C05E5
:100C80002FCD08430021CFF6FF7140EA821001EB1F
:100C9000C3316FF30F0140EA056008437060012023
:100CA0003866FFF7C3FC0446306880013FF5E3AEC9
:100CB000FFF7BCFC001B02284FF00300F4D9DBE671
:100CC000FFF7B4FC054641F2883700BF306F80075C
:100CD00008D5FFF7ABFC401BB8424FF00300F5D935
:100CE000CAE600BFB8F1000F7FF497AE306C20F079
:100CF0008050306491E600BFFFF798FC054600BFC6
:100D0000306880037FF565AEFFF790FC401B6428D8
:100D10004FF00300F4D9AFE6411E0020B0EB116F95
:100D20001CBF012070474EF21002CEF2000251604B
:100D30004EF62351CEF20001F0230B700721906094
:100D40001160704710B590F83C20012A4FF0020264
:100D500051D080F83D200268D2F804E0D2F808C0F3
:100D60000C682EF07003234341F2FF74C4F20004B8
:100D7000A24253600EDC40F2FF73C4F200039A42B9
:100D800016DCB2F1804F2BD040F20043C4F20003D6
:100D900024E000BF40F2FF33C4F201039A4213DCA7
:100DA00041F60003C4F200039A4219D0002313E075
:100DB00040F60003C4F200039A4211D040F600430B
:100DC000C4F200030AE000BF44F20003C4F20103CE
:100DD0009A4205D040F20043C4F201039A4204D182
:100DE00049682CF08003194391600121002280F8AA
:100DF0003D1080F83C20104610BD00002DE9F04168
:100E000090F83C30012B04BF0220BDE8F0814FEA8E
:100E1000B202032A00F2FC80DFE802F0023E7EBE4E
:100E2000036840F200471C6A1A6A24F0020422F0A8
:100E300001021A621A46D3F804E052F818CF8E68FD
:100E400043F48065C4F20107BD4244EA060405D1BB
:100E5000CE6824F00C0426F0040634430E68BD422C
:100E600007D1D1E905572EF4407E45EA0E0545EA43
:100E7000070E2CF073073743C3F804E09F614F68F7
:100E800009695F631C629F6947F008079F619F695A
:100E900027F004079F61B1E0036840F200481C6A34
:100EA0001A6A24F0200422F010021A621A46D3F8BB
:100EB00004E052F818CF8F6843F48065C4F201084B
:100EC000454544EA071407D1CF686FF0400624F087
:100ED000C00406EA071634430F68454507D1D1E937
:100EE00005562EF4406E4EEA850545EA860E2CF432
:100EF000E64646EA0727C3F804E09F614F680969A0
:100F00009F631C629F6947F400679F619F6927F494
:100F100080679F6171E000BF036840F200481C6A6F
:100F20001A6A24F4007422F480721A621A46D3F802
:100F300004E052F81CCF8F6843F48065C4F20108C6
:100F4000454544EA072408D1CF6840F2FF463F02F6
:100F500024F4406427EA060634430F68454507D168
:100F6000D1E905562EF4405E4EEA051545EA061E07
:100F70002CF073063743C3F804E0DF614F6809695A
:100F8000DF631C62DF6947F00807DF61DF6927F074
:100F90000407DF6132E000BF036840F20045D3F888
:100FA00020C01A6A43F4806722F480521A621A46FB
:100FB0005C6852F81CEFD1F800808E68C4F201051D
:100FC000AF4204D14D6924F4804444EA85142CF4E2
:100FD000005747EA06372EF4E64646EA08265C60E4
:100FE000DE614E6809691E641F62DF6947F40067AD
:100FF000DF61DF6927F48067DF6109021368194345
:1010000011600021002280F83C200846BDE8F081F4
:101010000121002280F83C200846BDE8F081000054
:10102000002804BF0120704710B5044690F83D0029
:1010300028B9002084F83C00204600F01FF8022068
:1010400084F83D002068211D00F014FA012084F886
:10105000460084F83E0084F83F0084F8400084F89D
:10106000410084F8420084F8430084F8440084F886
:10107000450084F83D00002010BD000081B00068EC
:1010800040F20041C4F20001884201D001B0704733
:101090000020009043F64000C4F20200016841F0D5
:1010A00002010160006800F002000090009801B0A9
:1010B0007047000041B1082910D0042914BF00F185
:1010C000410200F13F020BE090F83E20012A1CBFD4
:1010D00001207047022280F83E2013E000F1400218
:1010E0001278012A1CBF012070470222082907D06C
:1010F000042914BF80F8412080F83F2002E000BF9F
:1011000080F84020006801F01F010122036A02FA02
:1011100001F123EA01020262026A114341F2FF7205
:10112000C4F20002904201620CDC40F2FF71C4F292
:101130000001884214DCB0F1804F37D040F200410A
:1011400016E000BF40F2FF31C4F20101884215DC15
:1011500041F60001C4F20001884227D0002115E0C9
:1011600040F60001C4F2000188421FD040F6004161
:10117000C4F20001884219D01FE000BF44F2000110
:10118000C4F20101884211D040F20041C4F20101D1
:10119000884212D1416C40F2004340F48062C4F2B4
:1011A000010341F400419A42416406D1816801F093
:1011B0000701062904BF00207047016841F00101C2
:1011C0000160002070470000002804BF0120704724
:1011D00010B5044690F8410028B9002084F840007A
:1011E000204600F021F8242084F841002068C168DE
:1011F00021F40051C160204600F0DEF92068016949
:1012000021F490410161416921F02A014161C168E5
:1012100041F40051C16000202021606484F8411035
:1012200084F84210606310BD2DE9F04186B00024BF
:10123000C4F202040068A4F57041884202D006B0EE
:10124000BDE8F081002643F630000196C4F20200AA
:10125000416901AD41F01001416141694FF003085E
:1012600001F010010191019901960168072741F0F1
:10127000010101600068294600F001000190019819
:101280004FF4007001900220CDE902062046CDF80F
:1012900010800597FFF7E0F84FF48060019012206E
:1012A00002A981E84101204629460597FFF7D4F8B5
:1012B00006B0BDE8F0810000FEE7000070B586B022
:1012C000002643F6300005960096C4F2020001683D
:1012D000002441F0800101600168C4F2020401F0C1
:1012E00080010091009900960168002241F00101FF
:1012F000016001684FF4D87501F001010091009977
:101300000096016841F00401016000684FF4D87153
:1013100000F00400009000982046FFF781F9019545
:10132000012001ADCDE90206204629460496FFF7CB
:1013300093F84FF40060CDE9010604F500602946FA
:101340000396FFF789F806B070BD0000B0B590B005
:1013500040F2004540F28000C4F200050021C2F2D4
:101360000000A72240F2E733CDE90811CDE90611CC
:10137000CDE90411C0E90052C0E9021301618161A5
:10138000FFF74EFE002818BFFFF74EF840F280002E
:10139000C2F2000008A9FFF7D5FC002818BFFFF72C
:1013A00043F8602040F2800401900020C2F2000463
:1013B000CDE90200059001A920460022FFF71EFD9D
:1013C000002818BFFFF730F82068A84202D010B0FC
:1013D000B0BD00BF002043F630010B90C4F2020103
:1013E0000A6842F001020A60096801F001010B91EC
:1013F0000B9940210B910221CDE90C10CDE90E0192
:1014000005F5FE300BA9FFF727F810B0B0BD0000BE
:1014100080B540F2C80041F20001C2F20000C4F2FF
:10142000010100234FF00C0C4FF4E13280E80E0074
:10143000C0E90333C0E905C3C361FFF7C5FE002857
:1014400008BF80BDBDE88040FEF7EEBFFEE70000AC
:10145000FEE700007047000070470000FFF7ECB89F
:101460004EF68850CEF20000016841F47001016030
:1014700070470000B0B540F6FF3E0568C4F2000EAC
:1014800040F2004C7045C4F2010C27DCB0F1804FF3
:1014900031D040F20043C4F2000398422BD040F612
:1014A0000003C4F20003984225D041F6FF73C4F252
:1014B000000398422ADC70453CDCB0F1804F5FD0DD
:1014C00040F20043C4F20003984259D040F60003B2
:1014D000C4F20003984253D057E000BF40F60043E7
:1014E000C4F20003984206D0604504D00023C4F241
:1014F00001039842D9D14B6825F0700243EA0205F6
:1015000041F6FF73C4F200039842D4DD43F6FF7343
:10151000C4F20103984221DC42F20003C4F200034A
:1015200098422DD00023C4F20103984228D0604590
:1015300026D02AE040F60043C4F2000398421FD0B0
:1015400041F60003C4F20003984219D041F600436B
:10155000C4F20003984213D017E000BF44F2000326
:10156000C4F2010398420BD044F60003C4F2010315
:10157000984205D044F20043C4F20103984204D1DA
:10158000CB6825F4407243EA02050A688C684B690F
:10159000C46240F480648262644504BF09690163E7
:1015A000026825F0800142F0040219430260012222
:1015B00042610160B0BD000010B504460068D4E986
:1015C00002C22369016921F440511143016162693A
:1015D00043EA0C01E3691143C268194349F20C6301
:1015E0009A431143C1604169A26921F4407141F2FB
:1015F0000043114340F48062C4F201039A42416106
:1016000002D1FFF783F901E0FFF76CF9E169636844
:101610001922B1F5004FA0FB02011FD15A00DB0FC8
:10162000FEF722FE48F21F51C5F2EB11A0FB012389
:101630005A096FF0630302FB0300322303EBC0007F
:10164000A0FB01014FF4F87000EA111000EB02104A
:10165000C1F3421108442168886010BD9A009B0FB5
:10166000FEF702FE48F21F51C5F2EB11A0FB012369
:101670005A096FF0630302FB0300322303EB0010EF
:10168000A0FB0101F02000EA511000EB0210C1F3B1
:10169000431108442168886010BD0000FEE7000087
:1016A00040F27800C2F20000C17802790123002ADA
:1016B00018BF4FF0FF331944CAB2632AC17003D96F
:1016C0006421C17007E000BF0B0603D04170817038
:1016D000704700BF00210023632A88BF01230371E4
:1016E000417081707047000010B540F20044C4F2B0
:1016F0000204204601210122FEF792FF6420FEF73A
:1017000097FE204601210022BDE81040FEF788BF69
:1017100040F20040C4F2020001210022FEF780BF27
:1017200070B540F60000C4F202004FF40061FEF70D
:1017300071FF461E40F27005044618BF01260128BD
:10174000C2F200050AD1287840B9FEF76FFF686041
:1017500000206870304304D010E000BF6878304348
:101760000CD1FEF763FF6968401AB0F57A7F05D99E
:10177000012402216C7008462C7070BD2978601E0F
:10178000002918BF0121B0FA80F0314001294FEA49
:1017900050140BD1FEF74AFF6968401AB0F57A7F02
:1017A0004FF00001E7D20120297070BD00210846EA
:1017B0002C7070BD0020C4F20200F0210022FEF760
:1017C0002FBF000001460020C4F202000022FEF7F5
:1017D00027BF000001460020C4F202000122FEF7EC
:1017E0001FBF000092B0FEF735FF06AC201D2C2174
:1017F000FEF7B2FD002543F640000595CDE90355FF
:10180000CDE901550095C4F20200016841F0805114
:101810000160006800F080500090009847F20000DE
:101820000095C4F20000016841F480410160006845
:1018300000F480400090009802200690012009905A
:1018400010200A9020460C95FFF7AAF810B172B646
:10185000FEE700BF0F20CDE9010501A80021CDE979
:1018600003550595FEF78EFF10B172B6FEE700BF77
:10187000FFF724FDFFF76AFDFFF7CAFD40F2800085
:10188000C2F200000021FFF715FCFFF741FF00F056
:1018900095F800F005F800BF00F098F8FCE70000AC
:1018A00040F27800C2F20000002101808170704790
:1018B00010B540F27804C2F200042078617801305B
:1018C000C2B2632A88BF0020C2B28A4220704FF0A1
:1018D00010000BD2FFF77EFF2078A17888420BD34F
:1018E0004020BDE81040FFF76DBF00BFFFF76AFF63
:1018F0002078A1788842F3D24020BDE81040FFF75D
:1019000069BF000080B5FFF7CBFEFFF7D1FF0A20CB
:10191000FEF78EFDFFF704FF012818BF80BDFFF71B
:10192000E3FE40F27D00C2F200000221017080BDA2
:1019300080B5FFF73FFF2020FFF74CFF4FF4967074
:10194000FEF776FDFFF736FF8020FFF743FF4FF4E9
:101950009670FEF76DFDFFF72DFF1020FFF73AFFA1
:101960004FF49670FEF764FDFFF724FF4020FFF769
:1019700031FF4FF49670FEF75BFDFFF7D1FE0128B3
:1019800018BF80BDFFF7B0FE40F27D00C2F200003C
:101990000221017080BD000080B5FFF70BFFFFF74B
:1019A000BFFE022818BF80BDFFF79EFE40F27D00FB
:1019B000C2F200000121017080BD000040F27D00F4
:1019C000C2F20000002101707047000040F27D006B
:1019D000C2F20000007802A151F82000004700BFC9
:1019E000991900083119000805190008F1EE100ACC
:1019F0004FF6FF71C0F2C03120EA010040F04070A4
:101A0000E1EE100A70470000000000000000010233
:101A10000304060708090000000001020304000097
:101A2000401A00080000002010000000C401000857
:101A3000501A00081000002008070000E00100080C
:101A400001000000100000000024F400000000006D
:040000050800018965
:00000001FF
