:020000040800F2
:10000000C0060020290200088D11000831100008E8
:100010008911000821040008F51200080000000002
:100020000000000000000000000000009511000822
:100030002504000800000000911100089911000833
:10004000430200084302000843020008430200087C
:10005000430200084302000843020008430200086C
:10006000430200084302000843020008430200085C
:10007000430200084302000843020008430200084C
:10008000430200084302000843020008430200083C
:10009000430200084302000843020008430200082C
:1000A000430200084302000843020008430200081C
:1000B000430200084302000843020008430200080C
:1000C00043020008430200084302000843020008FC
:1000D00043020008430200084302000843020008EC
:1000E00043020008430200084302000843020008DC
:1000F00043020008430200084302000843020008CC
:1001000043020008430200084302000843020008BB
:1001100043020008430200084302000843020008AB
:10012000430200084302000843020008430200089B
:100130004302000800000000000000004302000825
:10014000430200084302000843020008430200087B
:10015000430200084302000843020008430200086B
:10016000430200084302000843020008430200085B
:1001700043020008430200080000000000000000E5
:10018000430200084302000800F002F800F03CF8C7
:100190000AA090E8000C82448344AAF10107DA45E2
:1001A00001D100F031F8AFF2090EBAE80F0013F0F8
:1001B000010F18BFFB1A43F001031847FC110000A0
:1001C0001C120000103A24BF78C878C1FAD8520730
:1001D00024BF30C830C144BF04680C6070470000C1
:1001E0000023002400250026103A28BF78C1FBD840
:1001F000520728BF30C148BF0B6070471FB501F0E0
:10020000C6F81FBD10B510BD00F0D0F81146FFF7BD
:10021000F5FF01F071F800F0EEF803B4FFF7F2FF1C
:1002200003BC00F0F5F80000094880470948004782
:10023000FEE7FEE7FEE7FEE7FEE7FEE7FEE7FEE796
:10024000FEE7FEE704480549054A064B70470000F3
:100250009D11000889010008C0000020C006002090
:10026000C0020020C002002053EA020C00F06980A6
:100270002DE9F04B4FF00006002B1FBFB3FA83F5BA
:1002800003FA05F424FA05F65E4012BF1643B2FAEB
:1002900082F502FA05F4C5F120051EBF22FA05FC1D
:1002A00044EA0C04203556EA044C4FEA144418BFC3
:1002B000641C4FF000084FF00009904271EB030CF2
:1002C00039D3002919BFB1FA81F701FA07F6B0FA5C
:1002D00080F700FA07F6C7F120071EBF20FA07FCD7
:1002E00046EA0C062037B6FBF4FCA7EB0507103FE7
:1002F00007F01F0BCBF120062CFA06F60CFA0BFBCD
:1003000044BFB3460026202FA4BF5E464FF0000B2B
:100310005BEA060C08BF4FF0010B19EB0B0948EB29
:100320000608ABFB027C06FB02CC0BFB03CCC01B1C
:1003300071EB0C01C1E70B46024641464846BDE859
:10034000F08B13B5084318BF4FF0FF300146AFF3F1
:100350000080BDE81C4070474FF0000200B5134616
:1003600094469646203922BFA0E80C50A0E80C50D5
:10037000B1F12001BFF4F7AF090728BFA0E80C5086
:1003800048BF0CC05DF804EB890028BF40F8042B7F
:1003900008BF704748BF20F8022B11F0804F18BFEC
:1003A00000F8012B7047704770477047754600F0A2
:1003B0002BF8AE4605006946534620F007008546F7
:1003C00018B020B5FFF73EFFBDE820404FF0000613
:1003D0004FF000074FF000084FF0000BAC46ACE8C0
:1003E000C009ACE8C009ACE8C009ACE8C00921F01C
:1003F00007018D46704710B50446AFF300802046D4
:10040000BDE81040FFF709BF00487047100000200A
:1004100001491820ABBEFEE726000200704700002D
:10042000FEE700007047000072B600BFFEE7000064
:100430002DE9F04F82B000F13E4241F6004502F155
:10044000FF77C4F2020508224FEAB726A84208BF88
:100450000722072E38BF4FEAB7224FF0010A0024C7
:1004600000274FF00008009208E000BF023708F1B3
:100470000108202F04F1040400F0B4800E680AFA89
:1004800008F916EA090FF1D0D1F804A00AF0030B1D
:10049000ABF10106012E17D80322866802FA07FE87
:1004A000CA6826EA0E06BA40324382604268CAF33E
:1004B000001522EA090205FA08F54FEA480C6FEA2E
:1004C0000E062A4342600BE00322BA40D643BBF13A
:1004D000030FBC4604D1BC464FF0030B22E000BF23
:1004E000C2688D68324005FA0CF52A43BBF1020F51
:1004F000C26017D16FF0030202EA5802024404F00E
:100500001C030F25D2F820E005FA03FA0D692EEA44
:100510000A0E05FA03F343EA0E031362D1F804A0AE
:100520000AF0030B02680BFA0CF332401A431AF478
:10053000403F4FF0010A026098D0002243F6440386
:100540000192C4F202031A6843F6004E42F480425C
:100550001A601A68C4F2010E02F480420192019AF4
:1005600028F003024FF6084C7244CFF6FF7C52F895
:100570000C3004F00C060F25B540AB43009D05FA86
:1005800006F6334342F80C30DEF808204B6842EAA6
:10059000090643F60C4CDD0258BF22EA0906CEF8E4
:1005A0000860C4F2010CDCF800209D0242EA090652
:1005B00058BF22EA0906CCF80060DEF804209D034B
:1005C00042EA090658BF22EA0906CEF80460DEF8BE
:1005D0000020DB0342EA090658BF22EA0906CEF8EA
:1005E000006043E702B0BDE8F08F0000002A08BFBA
:1005F000090481617047000040F2B800C2F20000B7
:100600000068704740F2000040F2B801C2F20000FA
:10061000C2F2000100780A681044086070470000C8
:1006200080B543F60040C4F20200016841F4007155
:100630000160016841F480610160016841F48071EA
:100640000160032000F074F80F2000F005F800F0BE
:1006500027F8002080BD000070B540F20006C2F20D
:10066000000640F208013278C2F200014FF47A73BA
:100670000968B3FBF2F20446B1FBF2F1084600F060
:1006800009FB0F2C4FF0010508D838B94FF0FF30A7
:1006900021460022002500F01FF87460284670BD36
:1006A00082B0002043F640010190C4F202014A6882
:1006B00042F480424A604A6802F480420192019A00
:1006C0000090086840F080500860086800F0805092
:1006D0000090009802B0704710B54EF60C5CCEF258
:1006E000000CDCF80030C3F3022E8EF00704042C5B
:1006F00028BF0424BEF103034FF0FF3E0EFA04F4BA
:1007000038BF0023A14399400EFA03F39A431143E3
:1007100000F00F02043A624409010C3200F1604318
:10072000B0F1FF3FC8BF03F56442117010BD000077
:100730004EF60C51CEF200010A684FF6FF031A4044
:1007400060F30A2242F0806040F0FD70086070475C
:100750002DE9F041002800F08B8043F60808C4F230
:1007600002080446D8F8F8030D4600F00700884256
:1007700007D288F8F853D8F8F80300F00700A84229
:1007800076D12068810717D5410705D5D8F8001024
:1007900041F4E051C8F80010010705D5D8F8001061
:1007A00041F46041C8F80010D8F80010A26821F0A8
:1007B000F0011143C8F80010C0073FD1D8F8F80382
:1007C00000F00700A84207D988F8F853D8F8F803D2
:1007D00000F00700A8424BD12068410707D5D8F8A0
:1007E0000010E26821F4E0511143C8F8001000073E
:1007F00008D5D8F80000216920F4604040EAC10023
:10080000C8F8000000F054F8D8F8001041F2A832FF
:10081000C1F30311C0F60002515C40F2080220FA55
:1008200001F140F20400C2F200000068C2F20002CE
:100830001160FFF711FF0020BDE8F0816068811EA4
:10084000022907D258F8081C89015CBF0120BDE8C5
:10085000F08111E0012807D158F8081C89035CBF1A
:100860000120BDE8F08107E058F8081C890703D48F
:100870000120BDE8F08100BFD8F8001021F003018D
:100880000843C8F80000FFF7B7FE064641F2883774
:10089000D8F80000616800F00C00B0EB810F8DD03B
:1008A000FFF7AAFE801BB842F2D90320BDE8F08111
:1008B00010B543F60404C4F20204606800F00C00B2
:1008C00008280BD0042819BF42F20040C0F2F400FF
:1008D00047F64000C0F27D1010BD00BF20682168BF
:1008E0002368490247F64001C0F27D1100F03F0243
:1008F000C3F388105CBF42F20041C0F2F401A1FBD7
:1009000000010023FFF7B0FC21680222C1F301417E
:1009100002EB4101B0FBF1F010BD00002DE9F04108
:1009200082B000286AD00446007843F60006C0076B
:10093000C4F202060BD0B06800F00C00042840F0AE
:10094000A1803068800302D56068002856D02078E6
:1009500080071AD5B06810F00C0F09D0B06800F00D
:100960000C00082840F0A8807068400200F1A480C4
:100970003068800702D5E06801283FD130682169DE
:1009800020F0F80040EAC10030602078000739D438
:10099000207840074ED4A5695DB3B06800F00C0024
:1009A000082840F0BD80012D28D07068E16900F46E
:1009B00080028A4222D1216A00F03F028A421DD180
:1009C00047F6C071626A0140B1EB821F16D1A26A7C
:1009D0000023CFF6FF7303EBC23200F440316FF314
:1009E0000F0291420AD1E16A00F07060B0EB016F32
:1009F00004D1002002B0BDE8F08100BF012002B0A8
:100A0000BDE8F0816069002840F20000C4F2472090
:100A100076D00121C0F8801EFFF7EEFD054600BF2D
:100A2000706F8007B4D4FFF7E7FD401B0228F7D9A9
:100A3000DDE000BF306C10F080580AD1002001903A
:100A4000306C40F080503064306C00F08050019089
:100A5000019847F20007C4F200073868C00541D486
:100A6000386840F480703860FFF7C6FD054600BF67
:100A70003868C00536D4FFF7BFFD401B0228F7D900
:100A8000B5E000BFB06800F00C00082803D1706822
:100A900040023FF556AF6068B0F5803F07D0B0F533
:100AA000A02F40F08D80306840F4802030603068A6
:100AB00040F4803030608DE0E068002852D00020A3
:100AC000C4F2472001210160FFF796FD054600BFF3
:100AD000306880073FF552AFFFF78EFD401B0228BC
:100AE000F6D984E0A068012805D005284ED1306FE2
:100AF00040F004003067306F40F0010030674FE095
:100B00000021C0F8801EFFF777FD0546706F800753
:100B10007FF53EAFFFF770FD401B0228F6D966E077
:100B20000027C4F2472700203866FFF765FD022D35
:100B300005460BD1306880015ED5FFF75DFD401B97
:100B400002284FF00300F5D954E700BF3068800158
:100B50007FF54FAFFFF750FD401B02284FF0030019
:100B6000F4D947E70020C4F2472000210160FFF7D5
:100B700043FD0546306880077FF507AFFFF73CFD72
:100B8000401B02284FF00300F4D933E7316F0028EF
:100B900021F001013167316F21F0040131674DD03F
:100BA000FFF72AFD054641F2883700BF306F800706
:100BB00056D4FFF721FD401BB842F7D917E000BF1C
:100BC0003168002821F480313160316821F48021BE
:100BD00031604FD0FFF710FD054600BF306880033D
:100BE0003FF5B5AEFFF708FD401B6428F6D903209A
:100BF00002B0BDE8F08100BF04F11C052FCD084311
:100C00000021CFF6FF7140EA821001EBC3316FF390
:100C10000F0140EA05600843706001203866FFF765
:100C2000EBFC0446306880013FF5E3AEFFF7E4FCDF
:100C3000001B02284FF00300F4D9DBE6FFF7DCFCD1
:100C4000054641F2883700BF306F800708D5FFF7AF
:100C5000D3FC401BB8424FF00300F5D9CAE600BFF1
:100C6000B8F1000F7FF497AE306C20F08050306404
:100C700091E600BFFFF7C0FC054600BF3068800367
:100C80007FF565AEFFF7B8FC401B64284FF003000A
:100C9000F4D9AFE6411E0020B0EB116F1CBF01205C
:100CA00070474EF21002CEF2000251604EF6235110
:100CB000CEF20001F0230B700721906011607047A5
:100CC00010B590F83C20012A4FF0020251D080F874
:100CD0003D200268D2F804E0D2F808C00C682EF07B
:100CE0007003234341F2FF74C4F20004A242536034
:100CF0000EDC40F2FF73C4F200039A4216DCB2F13C
:100D0000804F2BD040F20043C4F2000324E000BF28
:100D100040F2FF33C4F201039A4213DC41F60003B0
:100D2000C4F200039A4219D0002313E040F60003F6
:100D3000C4F200039A4211D040F60043C4F200030B
:100D40000AE000BF44F20003C4F201039A4205D056
:100D500040F20043C4F201039A4204D149682CF0E6
:100D60008003194391600121002280F83D1080F832
:100D70003C20104610BD00002DE9F04190F83C30B9
:100D8000012B04BF0220BDE8F0814FEAB202032A22
:100D900000F2FC80DFE802F0023E7EBE036840F213
:100DA00000471C6A1A6A24F0020422F001021A6247
:100DB0001A46D3F804E052F818CF8E6843F48065E1
:100DC000C4F20107BD4244EA060405D1CE6824F00E
:100DD0000C0426F0040634430E68BD4207D1D1E965
:100DE00005572EF4407E45EA0E0545EA070E2CF025
:100DF00073073743C3F804E09F614F6809695F6375
:100E00001C629F6947F008079F619F6927F00407EC
:100E10009F61B1E0036840F200481C6A1A6A24F03E
:100E2000200422F010021A621A46D3F804E052F8A5
:100E300018CF8F6843F48065C4F20108454544EA41
:100E4000071407D1CF686FF0400624F0C00406EA0B
:100E5000071634430F68454507D1D1E905562EF4EE
:100E6000406E4EEA850545EA860E2CF4E64646EAD3
:100E70000727C3F804E09F614F6809699F631C62FC
:100E80009F6947F400679F619F6927F480679F61AE
:100E900071E000BF036840F200481C6A1A6A24F43B
:100EA000007422F480721A621A46D3F804E052F8F1
:100EB0001CCF8F6843F48065C4F20108454544EABD
:100EC000072408D1CF6840F2FF463F0224F4406473
:100ED00027EA060634430F68454507D1D1E9055690
:100EE0002EF4405E4EEA051545EA061E2CF0730608
:100EF0003743C3F804E0DF614F680969DF631C62B0
:100F0000DF6947F00807DF61DF6927F00407DF6169
:100F100032E000BF036840F20045D3F820C01A6AEF
:100F200043F4806722F480521A621A465C6852F8D1
:100F30001CEFD1F800808E68C4F20105AF4204D1E5
:100F40004D6924F4804444EA85142CF4005747EAA0
:100F500006372EF4E64646EA08265C60DE614E68F7
:100F600009691E641F62DF6947F40067DF61DF699A
:100F700027F48067DF6109021368194311600021BB
:100F8000002280F83C200846BDE8F08101210022C3
:100F900080F83C200846BDE8F0810000002804BF2E
:100FA0000120704710B5044690F83D0028B9002094
:100FB00084F83C00204600F01FF8022084F83D0031
:100FC0002068211D00F0F4F8012084F8460084F820
:100FD0003E0084F83F0084F8400084F8410084F823
:100FE000420084F8430084F8440084F8450084F803
:100FF0003D00002010BD000081B0006840F20041BB
:10100000C4F20001884201D001B070470020009076
:1010100043F64000C4F20200016841F002010160A1
:10102000006800F002000090009801B070470000D6
:10103000FEE7000070B586B0002643F63000059646
:101040000096C4F202000168002441F080010160B2
:101050000168C4F2020401F0800100910099009639
:101060000168002241F00101016001684FF4D87568
:1010700001F00101009100990096016841F004011E
:10108000016000684FF4D87100F0040000900098EF
:101090002046FFF7ABFA0195012001ADCDE902062C
:1010A000204629460496FFF7C3F94FF40060CDE9C6
:1010B000010604F5006029460396FFF7B9F906B06A
:1010C00070BD0000B0B590B040F2004540F2700035
:1010D000C4F200050021C2F20000A72240F2E7336B
:1010E000CDE90811CDE90611CDE90411C0E900529E
:1010F000C0E9021301618161FFF750FF002818BFAA
:10110000FFF792F940F27000C2F2000008A9FFF761
:10111000D7FD002818BFFFF787F9602040F2700460
:1011200001900020C2F20004CDE90200059001A95F
:1011300020460022FFF720FE002818BFFFF774F9B1
:101140002068A84202D010B0B0BD00BF002043F616
:1011500030010B90C4F202010A6842F001020A60F9
:10116000096801F001010B910B9940210B910221BB
:10117000CDE90C10CDE90E0105F5FE300BA9FFF706
:1011800057F910B0B0BD0000FEE70000FEE7000018
:101190007047000070470000FFF734BA4EF68850E1
:1011A000CEF20000016841F4700101607047000058
:1011B000B0B540F6FF3E0568C4F2000E40F2004CA8
:1011C0007045C4F2010C27DCB0F1804F31D040F201
:1011D0000043C4F2000398422BD040F60003C4F24F
:1011E0000003984225D041F6FF73C4F200039842F1
:1011F0002ADC70453CDCB0F1804F5FD040F2004308
:10120000C4F20003984259D040F60003C4F2000330
:10121000984253D057E000BF40F60043C4F20003A9
:10122000984206D0604504D00023C4F201039842DE
:10123000D9D14B6825F0700243EA020541F6FF73ED
:10124000C4F200039842D4DD43F6FF73C4F20103F5
:10125000984221DC42F20003C4F2000398422DD0F0
:101260000023C4F20103984228D0604526D02AE02A
:1012700040F60043C4F2000398421FD041F6000339
:10128000C4F20003984219D041F60043C4F20003AF
:10129000984213D017E000BF44F20003C4F20103E8
:1012A00098420BD044F60003C4F20103984205D0E3
:1012B00044F20043C4F20103984204D1CB6825F400
:1012C000407243EA02050A688C684B69C46240F4C4
:1012D00080648262644504BF09690163026825F085
:1012E000800142F004021943026001224261016060
:1012F000B0BD0000FEE7000092B0FFF791F906AC28
:10130000201D2C21FFF728F8002543F64000059505
:10131000CDE90355CDE901550095C4F202000168FD
:1013200041F080510160006800F08050009000980A
:1013300047F200000095C4F20000016841F48041CA
:101340000160006800F48040009000980220069040
:101350000120099010200A9020460C95FFF7DEFA34
:1013600010B172B6FEE700BF0F20CDE9010501A85C
:101370000021CDE903550595FFF7EAF910B172B6E2
:10138000FEE700BFFFF756FEFFF79CFEFEE7F1EE1B
:10139000100A4FF6FF71C0F2C03120EA010040F0A0
:1013A0004070E1EE100A70470000000000000000ED
:1013B0000102030406070809D813000800000020F2
:1013C00010000000C4010008E8130008100000200D
:1013D000B0060000E001000801000000100000005D
:0813E0000024F40000000000ED
:040000050800018965
:00000001FF
